{
  "_format": "hh-sol-artifact-1",
  "contractName": "BusinesssCardNft",
  "sourceName": "contracts/NFT.sol",
  "abi": [
    {
      "inputs": [
        {
          "internalType": "string",
          "name": "_name",
          "type": "string"
        },
        {
          "internalType": "string",
          "name": "_symbol",
          "type": "string"
        },
        {
          "internalType": "string",
          "name": "_baseTokenURI",
          "type": "string"
        }
      ],
      "stateMutability": "nonpayable",
      "type": "constructor"
    },
    {
      "anonymous": false,
      "inputs": [
        {
          "indexed": true,
          "internalType": "address",
          "name": "owner",
          "type": "address"
        },
        {
          "indexed": true,
          "internalType": "address",
          "name": "approved",
          "type": "address"
        },
        {
          "indexed": true,
          "internalType": "uint256",
          "name": "tokenId",
          "type": "uint256"
        }
      ],
      "name": "Approval",
      "type": "event"
    },
    {
      "anonymous": false,
      "inputs": [
        {
          "indexed": true,
          "internalType": "address",
          "name": "owner",
          "type": "address"
        },
        {
          "indexed": true,
          "internalType": "address",
          "name": "operator",
          "type": "address"
        },
        {
          "indexed": false,
          "internalType": "bool",
          "name": "approved",
          "type": "bool"
        }
      ],
      "name": "ApprovalForAll",
      "type": "event"
    },
    {
      "anonymous": false,
      "inputs": [
        {
          "indexed": true,
          "internalType": "address",
          "name": "previousOwner",
          "type": "address"
        },
        {
          "indexed": true,
          "internalType": "address",
          "name": "newOwner",
          "type": "address"
        }
      ],
      "name": "OwnershipTransferred",
      "type": "event"
    },
    {
      "anonymous": false,
      "inputs": [
        {
          "indexed": true,
          "internalType": "address",
          "name": "from",
          "type": "address"
        },
        {
          "indexed": true,
          "internalType": "address",
          "name": "to",
          "type": "address"
        },
        {
          "indexed": true,
          "internalType": "uint256",
          "name": "tokenId",
          "type": "uint256"
        }
      ],
      "name": "Transfer",
      "type": "event"
    },
    {
      "inputs": [
        {
          "internalType": "address",
          "name": "to",
          "type": "address"
        },
        {
          "internalType": "uint256",
          "name": "tokenId",
          "type": "uint256"
        }
      ],
      "name": "approve",
      "outputs": [],
      "stateMutability": "nonpayable",
      "type": "function"
    },
    {
      "inputs": [
        {
          "internalType": "address",
          "name": "owner",
          "type": "address"
        }
      ],
      "name": "balanceOf",
      "outputs": [
        {
          "internalType": "uint256",
          "name": "",
          "type": "uint256"
        }
      ],
      "stateMutability": "view",
      "type": "function"
    },
    {
      "inputs": [
        {
          "internalType": "uint256",
          "name": "tokenId",
          "type": "uint256"
        }
      ],
      "name": "getApproved",
      "outputs": [
        {
          "internalType": "address",
          "name": "",
          "type": "address"
        }
      ],
      "stateMutability": "view",
      "type": "function"
    },
    {
      "inputs": [
        {
          "internalType": "address",
          "name": "owner",
          "type": "address"
        },
        {
          "internalType": "address",
          "name": "operator",
          "type": "address"
        }
      ],
      "name": "isApprovedForAll",
      "outputs": [
        {
          "internalType": "bool",
          "name": "",
          "type": "bool"
        }
      ],
      "stateMutability": "view",
      "type": "function"
    },
    {
      "inputs": [],
      "name": "mint",
      "outputs": [],
      "stateMutability": "nonpayable",
      "type": "function"
    },
    {
      "inputs": [
        {
          "internalType": "address",
          "name": "",
          "type": "address"
        }
      ],
      "name": "minted",
      "outputs": [
        {
          "internalType": "uint256",
          "name": "",
          "type": "uint256"
        }
      ],
      "stateMutability": "view",
      "type": "function"
    },
    {
      "inputs": [],
      "name": "name",
      "outputs": [
        {
          "internalType": "string",
          "name": "",
          "type": "string"
        }
      ],
      "stateMutability": "view",
      "type": "function"
    },
    {
      "inputs": [],
      "name": "owner",
      "outputs": [
        {
          "internalType": "address",
          "name": "",
          "type": "address"
        }
      ],
      "stateMutability": "view",
      "type": "function"
    },
    {
      "inputs": [
        {
          "internalType": "uint256",
          "name": "tokenId",
          "type": "uint256"
        }
      ],
      "name": "ownerOf",
      "outputs": [
        {
          "internalType": "address",
          "name": "",
          "type": "address"
        }
      ],
      "stateMutability": "view",
      "type": "function"
    },
    {
      "inputs": [],
      "name": "renounceOwnership",
      "outputs": [],
      "stateMutability": "nonpayable",
      "type": "function"
    },
    {
      "inputs": [
        {
          "internalType": "address",
          "name": "from",
          "type": "address"
        },
        {
          "internalType": "address",
          "name": "to",
          "type": "address"
        },
        {
          "internalType": "uint256",
          "name": "tokenId",
          "type": "uint256"
        }
      ],
      "name": "safeTransferFrom",
      "outputs": [],
      "stateMutability": "nonpayable",
      "type": "function"
    },
    {
      "inputs": [
        {
          "internalType": "address",
          "name": "from",
          "type": "address"
        },
        {
          "internalType": "address",
          "name": "to",
          "type": "address"
        },
        {
          "internalType": "uint256",
          "name": "tokenId",
          "type": "uint256"
        },
        {
          "internalType": "bytes",
          "name": "data",
          "type": "bytes"
        }
      ],
      "name": "safeTransferFrom",
      "outputs": [],
      "stateMutability": "nonpayable",
      "type": "function"
    },
    {
      "inputs": [
        {
          "internalType": "address",
          "name": "operator",
          "type": "address"
        },
        {
          "internalType": "bool",
          "name": "approved",
          "type": "bool"
        }
      ],
      "name": "setApprovalForAll",
      "outputs": [],
      "stateMutability": "nonpayable",
      "type": "function"
    },
    {
      "inputs": [
        {
          "internalType": "bytes4",
          "name": "interfaceId",
          "type": "bytes4"
        }
      ],
      "name": "supportsInterface",
      "outputs": [
        {
          "internalType": "bool",
          "name": "",
          "type": "bool"
        }
      ],
      "stateMutability": "view",
      "type": "function"
    },
    {
      "inputs": [],
      "name": "symbol",
      "outputs": [
        {
          "internalType": "string",
          "name": "",
          "type": "string"
        }
      ],
      "stateMutability": "view",
      "type": "function"
    },
    {
      "inputs": [
        {
          "internalType": "uint256",
          "name": "tokenId",
          "type": "uint256"
        }
      ],
      "name": "tokenURI",
      "outputs": [
        {
          "internalType": "string",
          "name": "",
          "type": "string"
        }
      ],
      "stateMutability": "view",
      "type": "function"
    },
    {
      "inputs": [],
      "name": "totalSupply",
      "outputs": [
        {
          "internalType": "uint256",
          "name": "",
          "type": "uint256"
        }
      ],
      "stateMutability": "view",
      "type": "function"
    },
    {
      "inputs": [
        {
          "internalType": "address",
          "name": "from",
          "type": "address"
        },
        {
          "internalType": "address",
          "name": "to",
          "type": "address"
        },
        {
          "internalType": "uint256",
          "name": "tokenId",
          "type": "uint256"
        }
      ],
      "name": "transferFrom",
      "outputs": [],
      "stateMutability": "nonpayable",
      "type": "function"
    },
    {
      "inputs": [
        {
          "internalType": "address",
          "name": "newOwner",
          "type": "address"
        }
      ],
      "name": "transferOwnership",
      "outputs": [],
      "stateMutability": "nonpayable",
      "type": "function"
    },
    {
      "inputs": [],
      "name": "wothdraw",
      "outputs": [],
      "stateMutability": "nonpayable",
      "type": "function"
    }
  ],
  "bytecode": "0x608060405260006008553480156200001657600080fd5b5060405162002d2838038062002d2883398181016040528101906200003c9190620003cf565b828281600090805190602001906200005692919062000182565b5080600190805190602001906200006f92919062000182565b5050506200009262000086620000b460201b60201c565b620000bc60201b60201c565b8060079080519060200190620000aa92919062000182565b50505050620004ed565b600033905090565b6000600660009054906101000a900473ffffffffffffffffffffffffffffffffffffffff16905081600660006101000a81548173ffffffffffffffffffffffffffffffffffffffff021916908373ffffffffffffffffffffffffffffffffffffffff1602179055508173ffffffffffffffffffffffffffffffffffffffff168173ffffffffffffffffffffffffffffffffffffffff167f8be0079c531659141344cd1fd0a4f28419497f9722a3daafe3b4186f6b6457e060405160405180910390a35050565b8280546200019090620004b7565b90600052602060002090601f016020900481019282620001b4576000855562000200565b82601f10620001cf57805160ff191683800117855562000200565b8280016001018555821562000200579182015b82811115620001ff578251825591602001919060010190620001e2565b5b5090506200020f919062000213565b5090565b5b808211156200022e57600081600090555060010162000214565b5090565b6000604051905090565b600080fd5b600080fd5b600080fd5b600080fd5b6000601f19601f8301169050919050565b7f4e487b7100000000000000000000000000000000000000000000000000000000600052604160045260246000fd5b6200029b8262000250565b810181811067ffffffffffffffff82111715620002bd57620002bc62000261565b5b80604052505050565b6000620002d262000232565b9050620002e0828262000290565b919050565b600067ffffffffffffffff82111562000303576200030262000261565b5b6200030e8262000250565b9050602081019050919050565b60005b838110156200033b5780820151818401526020810190506200031e565b838111156200034b576000848401525b50505050565b6000620003686200036284620002e5565b620002c6565b9050828152602081018484840111156200038757620003866200024b565b5b620003948482856200031b565b509392505050565b600082601f830112620003b457620003b362000246565b5b8151620003c684826020860162000351565b91505092915050565b600080600060608486031215620003eb57620003ea6200023c565b5b600084015167ffffffffffffffff8111156200040c576200040b62000241565b5b6200041a868287016200039c565b935050602084015167ffffffffffffffff8111156200043e576200043d62000241565b5b6200044c868287016200039c565b925050604084015167ffffffffffffffff81111562000470576200046f62000241565b5b6200047e868287016200039c565b9150509250925092565b7f4e487b7100000000000000000000000000000000000000000000000000000000600052602260045260246000fd5b60006002820490506001821680620004d057607f821691505b60208210811415620004e757620004e662000488565b5b50919050565b61282b80620004fd6000396000f3fe608060405234801561001057600080fd5b506004361061012c5760003560e01c80636e143092116100ad578063a22cb46511610071578063a22cb4651461030b578063b88d4fde14610327578063c87b56dd14610343578063e985e9c514610373578063f2fde38b146103a35761012c565b80636e1430921461028b57806370a0823114610295578063715018a6146102c55780638da5cb5b146102cf57806395d89b41146102ed5761012c565b806318160ddd116100f457806318160ddd146101d55780631e7269c5146101f357806323b872dd1461022357806342842e0e1461023f5780636352211e1461025b5761012c565b806301ffc9a71461013157806306fdde0314610161578063081812fc1461017f578063095ea7b3146101af5780631249c58b146101cb575b600080fd5b61014b600480360381019061014691906118d7565b6103bf565b604051610158919061191f565b60405180910390f35b6101696104a1565b60405161017691906119d3565b60405180910390f35b61019960048036038101906101949190611a2b565b610533565b6040516101a69190611a99565b60405180910390f35b6101c960048036038101906101c49190611ae0565b610579565b005b6101d3610691565b005b6101dd610727565b6040516101ea9190611b2f565b60405180910390f35b61020d60048036038101906102089190611b4a565b61072d565b60405161021a9190611b2f565b60405180910390f35b61023d60048036038101906102389190611b77565b610745565b005b61025960048036038101906102549190611b77565b6107a5565b005b61027560048036038101906102709190611a2b565b6107c5565b6040516102829190611a99565b60405180910390f35b610293610877565b005b6102af60048036038101906102aa9190611b4a565b6108ee565b6040516102bc9190611b2f565b60405180910390f35b6102cd6109a6565b005b6102d76109ba565b6040516102e49190611a99565b60405180910390f35b6102f56109e4565b60405161030291906119d3565b60405180910390f35b61032560048036038101906103209190611bf6565b610a76565b005b610341600480360381019061033c9190611d6b565b610a8c565b005b61035d60048036038101906103589190611a2b565b610aee565b60405161036a91906119d3565b60405180910390f35b61038d60048036038101906103889190611dee565b610bca565b60405161039a919061191f565b60405180910390f35b6103bd60048036038101906103b89190611b4a565b610c5e565b005b60007f80ac58cd000000000000000000000000000000000000000000000000000000007bffffffffffffffffffffffffffffffffffffffffffffffffffffffff1916827bffffffffffffffffffffffffffffffffffffffffffffffffffffffff1916148061048a57507f5b5e139f000000000000000000000000000000000000000000000000000000007bffffffffffffffffffffffffffffffffffffffffffffffffffffffff1916827bffffffffffffffffffffffffffffffffffffffffffffffffffffffff1916145b8061049a575061049982610ce2565b5b9050919050565b6060600080546104b090611e5d565b80601f01602080910402602001604051908101604052809291908181526020018280546104dc90611e5d565b80156105295780601f106104fe57610100808354040283529160200191610529565b820191906000526020600020905b81548152906001019060200180831161050c57829003601f168201915b5050505050905090565b600061053e82610d4c565b6004600083815260200190815260200160002060009054906101000a900473ffffffffffffffffffffffffffffffffffffffff169050919050565b6000610584826107c5565b90508073ffffffffffffffffffffffffffffffffffffffff168373ffffffffffffffffffffffffffffffffffffffff1614156105f5576040517f08c379a00000000000000000000000000000000000000000000000000000000081526004016105ec90611f01565b60405180910390fd5b8073ffffffffffffffffffffffffffffffffffffffff16610614610d97565b73ffffffffffffffffffffffffffffffffffffffff16148061064357506106428161063d610d97565b610bca565b5b610682576040517f08c379a000000000000000000000000000000000000000000000000000000000815260040161067990611f93565b60405180910390fd5b61068c8383610d9f565b505050565b6000600960003373ffffffffffffffffffffffffffffffffffffffff1673ffffffffffffffffffffffffffffffffffffffff1681526020019081526020016000205414610713576040517f08c379a000000000000000000000000000000000000000000000000000000000815260040161070a90611fff565b60405180910390fd5b600060085490506107243382610e58565b50565b60085481565b60096020528060005260406000206000915090505481565b610756610750610d97565b82611032565b610795576040517f08c379a000000000000000000000000000000000000000000000000000000000815260040161078c90612091565b60405180910390fd5b6107a08383836110c7565b505050565b6107c083838360405180602001604052806000815250610a8c565b505050565b6000806002600084815260200190815260200160002060009054906101000a900473ffffffffffffffffffffffffffffffffffffffff169050600073ffffffffffffffffffffffffffffffffffffffff168173ffffffffffffffffffffffffffffffffffffffff16141561086e576040517f08c379a0000000000000000000000000000000000000000000000000000000008152600401610865906120fd565b60405180910390fd5b80915050919050565b61087f61132e565b60003373ffffffffffffffffffffffffffffffffffffffff16476040516108a59061214e565b60006040518083038185875af1925050503d80600081146108e2576040519150601f19603f3d011682016040523d82523d6000602084013e6108e7565b606091505b5050905050565b60008073ffffffffffffffffffffffffffffffffffffffff168273ffffffffffffffffffffffffffffffffffffffff16141561095f576040517f08c379a0000000000000000000000000000000000000000000000000000000008152600401610956906121d5565b60405180910390fd5b600360008373ffffffffffffffffffffffffffffffffffffffff1673ffffffffffffffffffffffffffffffffffffffff168152602001908152602001600020549050919050565b6109ae61132e565b6109b860006113ac565b565b6000600660009054906101000a900473ffffffffffffffffffffffffffffffffffffffff16905090565b6060600180546109f390611e5d565b80601f0160208091040260200160405190810160405280929190818152602001828054610a1f90611e5d565b8015610a6c5780601f10610a4157610100808354040283529160200191610a6c565b820191906000526020600020905b815481529060010190602001808311610a4f57829003601f168201915b5050505050905090565b610a88610a81610d97565b8383611472565b5050565b610a9d610a97610d97565b83611032565b610adc576040517f08c379a0000000000000000000000000000000000000000000000000000000008152600401610ad390612091565b60405180910390fd5b610ae8848484846115df565b50505050565b6060610af98261163b565b610b38576040517f08c379a0000000000000000000000000000000000000000000000000000000008152600401610b2f90612241565b60405180910390fd5b60078054610b4590611e5d565b80601f0160208091040260200160405190810160405280929190818152602001828054610b7190611e5d565b8015610bbe5780601f10610b9357610100808354040283529160200191610bbe565b820191906000526020600020905b815481529060010190602001808311610ba157829003601f168201915b50505050509050919050565b6000600560008473ffffffffffffffffffffffffffffffffffffffff1673ffffffffffffffffffffffffffffffffffffffff16815260200190815260200160002060008373ffffffffffffffffffffffffffffffffffffffff1673ffffffffffffffffffffffffffffffffffffffff16815260200190815260200160002060009054906101000a900460ff16905092915050565b610c6661132e565b600073ffffffffffffffffffffffffffffffffffffffff168173ffffffffffffffffffffffffffffffffffffffff161415610cd6576040517f08c379a0000000000000000000000000000000000000000000000000000000008152600401610ccd906122d3565b60405180910390fd5b610cdf816113ac565b50565b60007f01ffc9a7000000000000000000000000000000000000000000000000000000007bffffffffffffffffffffffffffffffffffffffffffffffffffffffff1916827bffffffffffffffffffffffffffffffffffffffffffffffffffffffff1916149050919050565b610d558161163b565b610d94576040517f08c379a0000000000000000000000000000000000000000000000000000000008152600401610d8b906120fd565b60405180910390fd5b50565b600033905090565b816004600083815260200190815260200160002060006101000a81548173ffffffffffffffffffffffffffffffffffffffff021916908373ffffffffffffffffffffffffffffffffffffffff160217905550808273ffffffffffffffffffffffffffffffffffffffff16610e12836107c5565b73ffffffffffffffffffffffffffffffffffffffff167f8c5be1e5ebec7d5bd14f71427d1e84f3dd0314c0f7b2291e5b200ac8c7c3b92560405160405180910390a45050565b600073ffffffffffffffffffffffffffffffffffffffff168273ffffffffffffffffffffffffffffffffffffffff161415610ec8576040517f08c379a0000000000000000000000000000000000000000000000000000000008152600401610ebf9061233f565b60405180910390fd5b610ed18161163b565b15610f11576040517f08c379a0000000000000000000000000000000000000000000000000000000008152600401610f08906123ab565b60405180910390fd5b610f1d600083836116a7565b6001600360008473ffffffffffffffffffffffffffffffffffffffff1673ffffffffffffffffffffffffffffffffffffffff1681526020019081526020016000206000828254610f6d91906123fa565b92505081905550816002600083815260200190815260200160002060006101000a81548173ffffffffffffffffffffffffffffffffffffffff021916908373ffffffffffffffffffffffffffffffffffffffff160217905550808273ffffffffffffffffffffffffffffffffffffffff16600073ffffffffffffffffffffffffffffffffffffffff167fddf252ad1be2c89b69c2b068fc378daa952ba7f163c4a11628f55a4df523b3ef60405160405180910390a461102e600083836116ac565b5050565b60008061103e836107c5565b90508073ffffffffffffffffffffffffffffffffffffffff168473ffffffffffffffffffffffffffffffffffffffff161480611080575061107f8185610bca565b5b806110be57508373ffffffffffffffffffffffffffffffffffffffff166110a684610533565b73ffffffffffffffffffffffffffffffffffffffff16145b91505092915050565b8273ffffffffffffffffffffffffffffffffffffffff166110e7826107c5565b73ffffffffffffffffffffffffffffffffffffffff161461113d576040517f08c379a0000000000000000000000000000000000000000000000000000000008152600401611134906124c2565b60405180910390fd5b600073ffffffffffffffffffffffffffffffffffffffff168273ffffffffffffffffffffffffffffffffffffffff1614156111ad576040517f08c379a00000000000000000000000000000000000000000000000000000000081526004016111a490612554565b60405180910390fd5b6111b88383836116a7565b6111c3600082610d9f565b6001600360008573ffffffffffffffffffffffffffffffffffffffff1673ffffffffffffffffffffffffffffffffffffffff16815260200190815260200160002060008282546112139190612574565b925050819055506001600360008473ffffffffffffffffffffffffffffffffffffffff1673ffffffffffffffffffffffffffffffffffffffff168152602001908152602001600020600082825461126a91906123fa565b92505081905550816002600083815260200190815260200160002060006101000a81548173ffffffffffffffffffffffffffffffffffffffff021916908373ffffffffffffffffffffffffffffffffffffffff160217905550808273ffffffffffffffffffffffffffffffffffffffff168473ffffffffffffffffffffffffffffffffffffffff167fddf252ad1be2c89b69c2b068fc378daa952ba7f163c4a11628f55a4df523b3ef60405160405180910390a46113298383836116ac565b505050565b611336610d97565b73ffffffffffffffffffffffffffffffffffffffff166113546109ba565b73ffffffffffffffffffffffffffffffffffffffff16146113aa576040517f08c379a00000000000000000000000000000000000000000000000000000000081526004016113a1906125f4565b60405180910390fd5b565b6000600660009054906101000a900473ffffffffffffffffffffffffffffffffffffffff16905081600660006101000a81548173ffffffffffffffffffffffffffffffffffffffff021916908373ffffffffffffffffffffffffffffffffffffffff1602179055508173ffffffffffffffffffffffffffffffffffffffff168173ffffffffffffffffffffffffffffffffffffffff167f8be0079c531659141344cd1fd0a4f28419497f9722a3daafe3b4186f6b6457e060405160405180910390a35050565b8173ffffffffffffffffffffffffffffffffffffffff168373ffffffffffffffffffffffffffffffffffffffff1614156114e1576040517f08c379a00000000000000000000000000000000000000000000000000000000081526004016114d890612660565b60405180910390fd5b80600560008573ffffffffffffffffffffffffffffffffffffffff1673ffffffffffffffffffffffffffffffffffffffff16815260200190815260200160002060008473ffffffffffffffffffffffffffffffffffffffff1673ffffffffffffffffffffffffffffffffffffffff16815260200190815260200160002060006101000a81548160ff0219169083151502179055508173ffffffffffffffffffffffffffffffffffffffff168373ffffffffffffffffffffffffffffffffffffffff167f17307eab39ab6107e8899845ad3d59bd9653f200f220920489ca2b5937696c31836040516115d2919061191f565b60405180910390a3505050565b6115ea8484846110c7565b6115f6848484846116b1565b611635576040517f08c379a000000000000000000000000000000000000000000000000000000000815260040161162c906126f2565b60405180910390fd5b50505050565b60008073ffffffffffffffffffffffffffffffffffffffff166002600084815260200190815260200160002060009054906101000a900473ffffffffffffffffffffffffffffffffffffffff1673ffffffffffffffffffffffffffffffffffffffff1614159050919050565b505050565b505050565b60006116d28473ffffffffffffffffffffffffffffffffffffffff16611848565b1561183b578373ffffffffffffffffffffffffffffffffffffffff1663150b7a026116fb610d97565b8786866040518563ffffffff1660e01b815260040161171d9493929190612767565b602060405180830381600087803b15801561173757600080fd5b505af192505050801561176857506040513d601f19601f8201168201806040525081019061176591906127c8565b60015b6117eb573d8060008114611798576040519150601f19603f3d011682016040523d82523d6000602084013e61179d565b606091505b506000815114156117e3576040517f08c379a00000000000000000000000000000000000000000000000000000000081526004016117da906126f2565b60405180910390fd5b805181602001fd5b63150b7a0260e01b7bffffffffffffffffffffffffffffffffffffffffffffffffffffffff1916817bffffffffffffffffffffffffffffffffffffffffffffffffffffffff191614915050611840565b600190505b949350505050565b6000808273ffffffffffffffffffffffffffffffffffffffff163b119050919050565b6000604051905090565b600080fd5b600080fd5b60007fffffffff0000000000000000000000000000000000000000000000000000000082169050919050565b6118b48161187f565b81146118bf57600080fd5b50565b6000813590506118d1816118ab565b92915050565b6000602082840312156118ed576118ec611875565b5b60006118fb848285016118c2565b91505092915050565b60008115159050919050565b61191981611904565b82525050565b60006020820190506119346000830184611910565b92915050565b600081519050919050565b600082825260208201905092915050565b60005b83811015611974578082015181840152602081019050611959565b83811115611983576000848401525b50505050565b6000601f19601f8301169050919050565b60006119a58261193a565b6119af8185611945565b93506119bf818560208601611956565b6119c881611989565b840191505092915050565b600060208201905081810360008301526119ed818461199a565b905092915050565b6000819050919050565b611a08816119f5565b8114611a1357600080fd5b50565b600081359050611a25816119ff565b92915050565b600060208284031215611a4157611a40611875565b5b6000611a4f84828501611a16565b91505092915050565b600073ffffffffffffffffffffffffffffffffffffffff82169050919050565b6000611a8382611a58565b9050919050565b611a9381611a78565b82525050565b6000602082019050611aae6000830184611a8a565b92915050565b611abd81611a78565b8114611ac857600080fd5b50565b600081359050611ada81611ab4565b92915050565b60008060408385031215611af757611af6611875565b5b6000611b0585828601611acb565b9250506020611b1685828601611a16565b9150509250929050565b611b29816119f5565b82525050565b6000602082019050611b446000830184611b20565b92915050565b600060208284031215611b6057611b5f611875565b5b6000611b6e84828501611acb565b91505092915050565b600080600060608486031215611b9057611b8f611875565b5b6000611b9e86828701611acb565b9350506020611baf86828701611acb565b9250506040611bc086828701611a16565b9150509250925092565b611bd381611904565b8114611bde57600080fd5b50565b600081359050611bf081611bca565b92915050565b60008060408385031215611c0d57611c0c611875565b5b6000611c1b85828601611acb565b9250506020611c2c85828601611be1565b9150509250929050565b600080fd5b600080fd5b7f4e487b7100000000000000000000000000000000000000000000000000000000600052604160045260246000fd5b611c7882611989565b810181811067ffffffffffffffff82111715611c9757611c96611c40565b5b80604052505050565b6000611caa61186b565b9050611cb68282611c6f565b919050565b600067ffffffffffffffff821115611cd657611cd5611c40565b5b611cdf82611989565b9050602081019050919050565b82818337600083830152505050565b6000611d0e611d0984611cbb565b611ca0565b905082815260208101848484011115611d2a57611d29611c3b565b5b611d35848285611cec565b509392505050565b600082601f830112611d5257611d51611c36565b5b8135611d62848260208601611cfb565b91505092915050565b60008060008060808587031215611d8557611d84611875565b5b6000611d9387828801611acb565b9450506020611da487828801611acb565b9350506040611db587828801611a16565b925050606085013567ffffffffffffffff811115611dd657611dd561187a565b5b611de287828801611d3d565b91505092959194509250565b60008060408385031215611e0557611e04611875565b5b6000611e1385828601611acb565b9250506020611e2485828601611acb565b9150509250929050565b7f4e487b7100000000000000000000000000000000000000000000000000000000600052602260045260246000fd5b60006002820490506001821680611e7557607f821691505b60208210811415611e8957611e88611e2e565b5b50919050565b7f4552433732313a20617070726f76616c20746f2063757272656e74206f776e6560008201527f7200000000000000000000000000000000000000000000000000000000000000602082015250565b6000611eeb602183611945565b9150611ef682611e8f565b604082019050919050565b60006020820190508181036000830152611f1a81611ede565b9050919050565b7f4552433732313a20617070726f76652063616c6c6572206973206e6f7420746f60008201527f6b656e206f776e6572206e6f7220617070726f76656420666f7220616c6c0000602082015250565b6000611f7d603e83611945565b9150611f8882611f21565b604082019050919050565b60006020820190508181036000830152611fac81611f70565b9050919050565b7f616c72656479206d696e74656400000000000000000000000000000000000000600082015250565b6000611fe9600d83611945565b9150611ff482611fb3565b602082019050919050565b6000602082019050818103600083015261201881611fdc565b9050919050565b7f4552433732313a2063616c6c6572206973206e6f7420746f6b656e206f776e6560008201527f72206e6f7220617070726f766564000000000000000000000000000000000000602082015250565b600061207b602e83611945565b91506120868261201f565b604082019050919050565b600060208201905081810360008301526120aa8161206e565b9050919050565b7f4552433732313a20696e76616c696420746f6b656e2049440000000000000000600082015250565b60006120e7601883611945565b91506120f2826120b1565b602082019050919050565b60006020820190508181036000830152612116816120da565b9050919050565b600081905092915050565b50565b600061213860008361211d565b915061214382612128565b600082019050919050565b60006121598261212b565b9150819050919050565b7f4552433732313a2061646472657373207a65726f206973206e6f74206120766160008201527f6c6964206f776e65720000000000000000000000000000000000000000000000602082015250565b60006121bf602983611945565b91506121ca82612163565b604082019050919050565b600060208201905081810360008301526121ee816121b2565b9050919050565b7f546f6b656e20646f6573206e6f74206578697374210000000000000000000000600082015250565b600061222b601583611945565b9150612236826121f5565b602082019050919050565b6000602082019050818103600083015261225a8161221e565b9050919050565b7f4f776e61626c653a206e6577206f776e657220697320746865207a65726f206160008201527f6464726573730000000000000000000000000000000000000000000000000000602082015250565b60006122bd602683611945565b91506122c882612261565b604082019050919050565b600060208201905081810360008301526122ec816122b0565b9050919050565b7f4552433732313a206d696e7420746f20746865207a65726f2061646472657373600082015250565b6000612329602083611945565b9150612334826122f3565b602082019050919050565b600060208201905081810360008301526123588161231c565b9050919050565b7f4552433732313a20746f6b656e20616c7265616479206d696e74656400000000600082015250565b6000612395601c83611945565b91506123a08261235f565b602082019050919050565b600060208201905081810360008301526123c481612388565b9050919050565b7f4e487b7100000000000000000000000000000000000000000000000000000000600052601160045260246000fd5b6000612405826119f5565b9150612410836119f5565b9250827fffffffffffffffffffffffffffffffffffffffffffffffffffffffffffffffff03821115612445576124446123cb565b5b828201905092915050565b7f4552433732313a207472616e736665722066726f6d20696e636f72726563742060008201527f6f776e6572000000000000000000000000000000000000000000000000000000602082015250565b60006124ac602583611945565b91506124b782612450565b604082019050919050565b600060208201905081810360008301526124db8161249f565b9050919050565b7f4552433732313a207472616e7366657220746f20746865207a65726f2061646460008201527f7265737300000000000000000000000000000000000000000000000000000000602082015250565b600061253e602483611945565b9150612549826124e2565b604082019050919050565b6000602082019050818103600083015261256d81612531565b9050919050565b600061257f826119f5565b915061258a836119f5565b92508282101561259d5761259c6123cb565b5b828203905092915050565b7f4f776e61626c653a2063616c6c6572206973206e6f7420746865206f776e6572600082015250565b60006125de602083611945565b91506125e9826125a8565b602082019050919050565b6000602082019050818103600083015261260d816125d1565b9050919050565b7f4552433732313a20617070726f766520746f2063616c6c657200000000000000600082015250565b600061264a601983611945565b915061265582612614565b602082019050919050565b600060208201905081810360008301526126798161263d565b9050919050565b7f4552433732313a207472616e7366657220746f206e6f6e20455243373231526560008201527f63656976657220696d706c656d656e7465720000000000000000000000000000602082015250565b60006126dc603283611945565b91506126e782612680565b604082019050919050565b6000602082019050818103600083015261270b816126cf565b9050919050565b600081519050919050565b600082825260208201905092915050565b600061273982612712565b612743818561271d565b9350612753818560208601611956565b61275c81611989565b840191505092915050565b600060808201905061277c6000830187611a8a565b6127896020830186611a8a565b6127966040830185611b20565b81810360608301526127a8818461272e565b905095945050505050565b6000815190506127c2816118ab565b92915050565b6000602082840312156127de576127dd611875565b5b60006127ec848285016127b3565b9150509291505056fea2646970667358221220a5b86b070a7e789c5bdf68e49366f74f04723f47b37f0106d0ccc6aaf9e48ffd64736f6c63430008090033",
  "linkReferences": {},
  "deployedLinkReferences": {}
}