{
  "_format": "hh-sol-artifact-1",
  "contractName": "BusinessCardNft",
  "sourceName": "contracts/NFT.sol",
  "abi": [
    {
      "inputs": [
        {
          "internalType": "string",
          "name": "_name",
          "type": "string"
        },
        {
          "internalType": "string",
          "name": "_symbol",
          "type": "string"
        },
        {
          "internalType": "string",
          "name": "_baseTokenURI",
          "type": "string"
        }
      ],
      "stateMutability": "nonpayable",
      "type": "constructor"
    },
    {
      "anonymous": false,
      "inputs": [
        {
          "indexed": true,
          "internalType": "address",
          "name": "owner",
          "type": "address"
        },
        {
          "indexed": true,
          "internalType": "address",
          "name": "approved",
          "type": "address"
        },
        {
          "indexed": true,
          "internalType": "uint256",
          "name": "tokenId",
          "type": "uint256"
        }
      ],
      "name": "Approval",
      "type": "event"
    },
    {
      "anonymous": false,
      "inputs": [
        {
          "indexed": true,
          "internalType": "address",
          "name": "owner",
          "type": "address"
        },
        {
          "indexed": true,
          "internalType": "address",
          "name": "operator",
          "type": "address"
        },
        {
          "indexed": false,
          "internalType": "bool",
          "name": "approved",
          "type": "bool"
        }
      ],
      "name": "ApprovalForAll",
      "type": "event"
    },
    {
      "anonymous": false,
      "inputs": [
        {
          "indexed": true,
          "internalType": "address",
          "name": "previousOwner",
          "type": "address"
        },
        {
          "indexed": true,
          "internalType": "address",
          "name": "newOwner",
          "type": "address"
        }
      ],
      "name": "OwnershipTransferred",
      "type": "event"
    },
    {
      "anonymous": false,
      "inputs": [
        {
          "indexed": true,
          "internalType": "address",
          "name": "from",
          "type": "address"
        },
        {
          "indexed": true,
          "internalType": "address",
          "name": "to",
          "type": "address"
        },
        {
          "indexed": true,
          "internalType": "uint256",
          "name": "tokenId",
          "type": "uint256"
        }
      ],
      "name": "Transfer",
      "type": "event"
    },
    {
      "inputs": [
        {
          "internalType": "address",
          "name": "to",
          "type": "address"
        },
        {
          "internalType": "uint256",
          "name": "tokenId",
          "type": "uint256"
        }
      ],
      "name": "approve",
      "outputs": [],
      "stateMutability": "nonpayable",
      "type": "function"
    },
    {
      "inputs": [
        {
          "internalType": "address",
          "name": "owner",
          "type": "address"
        }
      ],
      "name": "balanceOf",
      "outputs": [
        {
          "internalType": "uint256",
          "name": "",
          "type": "uint256"
        }
      ],
      "stateMutability": "view",
      "type": "function"
    },
    {
      "inputs": [
        {
          "internalType": "uint256",
          "name": "tokenId",
          "type": "uint256"
        }
      ],
      "name": "getApproved",
      "outputs": [
        {
          "internalType": "address",
          "name": "",
          "type": "address"
        }
      ],
      "stateMutability": "view",
      "type": "function"
    },
    {
      "inputs": [
        {
          "internalType": "address",
          "name": "owner",
          "type": "address"
        }
      ],
      "name": "getId",
      "outputs": [
        {
          "internalType": "uint256",
          "name": "id",
          "type": "uint256"
        }
      ],
      "stateMutability": "view",
      "type": "function"
    },
    {
      "inputs": [
        {
          "internalType": "address",
          "name": "owner",
          "type": "address"
        },
        {
          "internalType": "address",
          "name": "operator",
          "type": "address"
        }
      ],
      "name": "isApprovedForAll",
      "outputs": [
        {
          "internalType": "bool",
          "name": "",
          "type": "bool"
        }
      ],
      "stateMutability": "view",
      "type": "function"
    },
    {
      "inputs": [
        {
          "internalType": "address",
          "name": "to",
          "type": "address"
        }
      ],
      "name": "mint",
      "outputs": [],
      "stateMutability": "nonpayable",
      "type": "function"
    },
    {
      "inputs": [
        {
          "internalType": "address",
          "name": "",
          "type": "address"
        }
      ],
      "name": "minted",
      "outputs": [
        {
          "internalType": "uint256",
          "name": "",
          "type": "uint256"
        }
      ],
      "stateMutability": "view",
      "type": "function"
    },
    {
      "inputs": [],
      "name": "name",
      "outputs": [
        {
          "internalType": "string",
          "name": "",
          "type": "string"
        }
      ],
      "stateMutability": "view",
      "type": "function"
    },
    {
      "inputs": [],
      "name": "owner",
      "outputs": [
        {
          "internalType": "address",
          "name": "",
          "type": "address"
        }
      ],
      "stateMutability": "view",
      "type": "function"
    },
    {
      "inputs": [
        {
          "internalType": "address",
          "name": "",
          "type": "address"
        }
      ],
      "name": "ownerById",
      "outputs": [
        {
          "internalType": "uint256",
          "name": "",
          "type": "uint256"
        }
      ],
      "stateMutability": "view",
      "type": "function"
    },
    {
      "inputs": [
        {
          "internalType": "uint256",
          "name": "tokenId",
          "type": "uint256"
        }
      ],
      "name": "ownerOf",
      "outputs": [
        {
          "internalType": "address",
          "name": "",
          "type": "address"
        }
      ],
      "stateMutability": "view",
      "type": "function"
    },
    {
      "inputs": [],
      "name": "renounceOwnership",
      "outputs": [],
      "stateMutability": "nonpayable",
      "type": "function"
    },
    {
      "inputs": [
        {
          "internalType": "address",
          "name": "from",
          "type": "address"
        },
        {
          "internalType": "address",
          "name": "to",
          "type": "address"
        },
        {
          "internalType": "uint256",
          "name": "tokenId",
          "type": "uint256"
        }
      ],
      "name": "safeTransferFrom",
      "outputs": [],
      "stateMutability": "nonpayable",
      "type": "function"
    },
    {
      "inputs": [
        {
          "internalType": "address",
          "name": "from",
          "type": "address"
        },
        {
          "internalType": "address",
          "name": "to",
          "type": "address"
        },
        {
          "internalType": "uint256",
          "name": "tokenId",
          "type": "uint256"
        },
        {
          "internalType": "bytes",
          "name": "data",
          "type": "bytes"
        }
      ],
      "name": "safeTransferFrom",
      "outputs": [],
      "stateMutability": "nonpayable",
      "type": "function"
    },
    {
      "inputs": [
        {
          "internalType": "address",
          "name": "operator",
          "type": "address"
        },
        {
          "internalType": "bool",
          "name": "approved",
          "type": "bool"
        }
      ],
      "name": "setApprovalForAll",
      "outputs": [],
      "stateMutability": "nonpayable",
      "type": "function"
    },
    {
      "inputs": [
        {
          "internalType": "bytes4",
          "name": "interfaceId",
          "type": "bytes4"
        }
      ],
      "name": "supportsInterface",
      "outputs": [
        {
          "internalType": "bool",
          "name": "",
          "type": "bool"
        }
      ],
      "stateMutability": "view",
      "type": "function"
    },
    {
      "inputs": [],
      "name": "symbol",
      "outputs": [
        {
          "internalType": "string",
          "name": "",
          "type": "string"
        }
      ],
      "stateMutability": "view",
      "type": "function"
    },
    {
      "inputs": [
        {
          "internalType": "uint256",
          "name": "tokenId",
          "type": "uint256"
        }
      ],
      "name": "tokenURI",
      "outputs": [
        {
          "internalType": "string",
          "name": "",
          "type": "string"
        }
      ],
      "stateMutability": "view",
      "type": "function"
    },
    {
      "inputs": [],
      "name": "totalSupply",
      "outputs": [
        {
          "internalType": "uint256",
          "name": "",
          "type": "uint256"
        }
      ],
      "stateMutability": "view",
      "type": "function"
    },
    {
      "inputs": [
        {
          "internalType": "address",
          "name": "from",
          "type": "address"
        },
        {
          "internalType": "address",
          "name": "to",
          "type": "address"
        },
        {
          "internalType": "uint256",
          "name": "tokenId",
          "type": "uint256"
        }
      ],
      "name": "transferFrom",
      "outputs": [],
      "stateMutability": "nonpayable",
      "type": "function"
    },
    {
      "inputs": [
        {
          "internalType": "address",
          "name": "newOwner",
          "type": "address"
        }
      ],
      "name": "transferOwnership",
      "outputs": [],
      "stateMutability": "nonpayable",
      "type": "function"
    },
    {
      "inputs": [],
      "name": "withdraw",
      "outputs": [],
      "stateMutability": "nonpayable",
      "type": "function"
    }
  ],
  "bytecode": "0x608060405260006008553480156200001657600080fd5b5060405162002f8738038062002f8783398181016040528101906200003c9190620003cf565b828281600090805190602001906200005692919062000182565b5080600190805190602001906200006f92919062000182565b5050506200009262000086620000b460201b60201c565b620000bc60201b60201c565b8060079080519060200190620000aa92919062000182565b50505050620004ed565b600033905090565b6000600660009054906101000a900473ffffffffffffffffffffffffffffffffffffffff16905081600660006101000a81548173ffffffffffffffffffffffffffffffffffffffff021916908373ffffffffffffffffffffffffffffffffffffffff1602179055508173ffffffffffffffffffffffffffffffffffffffff168173ffffffffffffffffffffffffffffffffffffffff167f8be0079c531659141344cd1fd0a4f28419497f9722a3daafe3b4186f6b6457e060405160405180910390a35050565b8280546200019090620004b7565b90600052602060002090601f016020900481019282620001b4576000855562000200565b82601f10620001cf57805160ff191683800117855562000200565b8280016001018555821562000200579182015b82811115620001ff578251825591602001919060010190620001e2565b5b5090506200020f919062000213565b5090565b5b808211156200022e57600081600090555060010162000214565b5090565b6000604051905090565b600080fd5b600080fd5b600080fd5b600080fd5b6000601f19601f8301169050919050565b7f4e487b7100000000000000000000000000000000000000000000000000000000600052604160045260246000fd5b6200029b8262000250565b810181811067ffffffffffffffff82111715620002bd57620002bc62000261565b5b80604052505050565b6000620002d262000232565b9050620002e0828262000290565b919050565b600067ffffffffffffffff82111562000303576200030262000261565b5b6200030e8262000250565b9050602081019050919050565b60005b838110156200033b5780820151818401526020810190506200031e565b838111156200034b576000848401525b50505050565b6000620003686200036284620002e5565b620002c6565b9050828152602081018484840111156200038757620003866200024b565b5b620003948482856200031b565b509392505050565b600082601f830112620003b457620003b362000246565b5b8151620003c684826020860162000351565b91505092915050565b600080600060608486031215620003eb57620003ea6200023c565b5b600084015167ffffffffffffffff8111156200040c576200040b62000241565b5b6200041a868287016200039c565b935050602084015167ffffffffffffffff8111156200043e576200043d62000241565b5b6200044c868287016200039c565b925050604084015167ffffffffffffffff81111562000470576200046f62000241565b5b6200047e868287016200039c565b9150509250925092565b7f4e487b7100000000000000000000000000000000000000000000000000000000600052602260045260246000fd5b60006002820490506001821680620004d057607f821691505b60208210811415620004e757620004e662000488565b5b50919050565b612a8a80620004fd6000396000f3fe608060405234801561001057600080fd5b50600436106101425760003560e01c80636a627842116100b8578063a22cb4651161007c578063a22cb46514610363578063a82be2231461037f578063b88d4fde146103af578063c87b56dd146103cb578063e985e9c5146103fb578063f2fde38b1461042b57610142565b80636a627842146102d157806370a08231146102ed578063715018a61461031d5780638da5cb5b1461032757806395d89b411461034557610142565b80631e7269c51161010a5780631e7269c5146101ff57806323b872dd1461022f5780633ccfd60b1461024b57806342842e0e146102555780636352211e1461027157806365f68c89146102a157610142565b806301ffc9a71461014757806306fdde0314610177578063081812fc14610195578063095ea7b3146101c557806318160ddd146101e1575b600080fd5b610161600480360381019061015c9190611aed565b610447565b60405161016e9190611b35565b60405180910390f35b61017f610529565b60405161018c9190611be9565b60405180910390f35b6101af60048036038101906101aa9190611c41565b6105bb565b6040516101bc9190611caf565b60405180910390f35b6101df60048036038101906101da9190611cf6565b610601565b005b6101e9610719565b6040516101f69190611d45565b60405180910390f35b61021960048036038101906102149190611d60565b61071f565b6040516102269190611d45565b60405180910390f35b61024960048036038101906102449190611d8d565b610737565b005b610253610797565b005b61026f600480360381019061026a9190611d8d565b61084e565b005b61028b60048036038101906102869190611c41565b61086e565b6040516102989190611caf565b60405180910390f35b6102bb60048036038101906102b69190611d60565b610920565b6040516102c89190611d45565b60405180910390f35b6102eb60048036038101906102e69190611d60565b610969565b005b61030760048036038101906103029190611d60565b610a73565b6040516103149190611d45565b60405180910390f35b610325610b2b565b005b61032f610b3f565b60405161033c9190611caf565b60405180910390f35b61034d610b69565b60405161035a9190611be9565b60405180910390f35b61037d60048036038101906103789190611e0c565b610bfb565b005b61039960048036038101906103949190611d60565b610c11565b6040516103a69190611d45565b60405180910390f35b6103c960048036038101906103c49190611f81565b610c29565b005b6103e560048036038101906103e09190611c41565b610c8b565b6040516103f29190611be9565b60405180910390f35b61041560048036038101906104109190612004565b610d67565b6040516104229190611b35565b60405180910390f35b61044560048036038101906104409190611d60565b610dfb565b005b60007f80ac58cd000000000000000000000000000000000000000000000000000000007bffffffffffffffffffffffffffffffffffffffffffffffffffffffff1916827bffffffffffffffffffffffffffffffffffffffffffffffffffffffff1916148061051257507f5b5e139f000000000000000000000000000000000000000000000000000000007bffffffffffffffffffffffffffffffffffffffffffffffffffffffff1916827bffffffffffffffffffffffffffffffffffffffffffffffffffffffff1916145b80610522575061052182610e7f565b5b9050919050565b60606000805461053890612073565b80601f016020809104026020016040519081016040528092919081815260200182805461056490612073565b80156105b15780601f10610586576101008083540402835291602001916105b1565b820191906000526020600020905b81548152906001019060200180831161059457829003601f168201915b5050505050905090565b60006105c682610ee9565b6004600083815260200190815260200160002060009054906101000a900473ffffffffffffffffffffffffffffffffffffffff169050919050565b600061060c8261086e565b90508073ffffffffffffffffffffffffffffffffffffffff168373ffffffffffffffffffffffffffffffffffffffff16141561067d576040517f08c379a000000000000000000000000000000000000000000000000000000000815260040161067490612117565b60405180910390fd5b8073ffffffffffffffffffffffffffffffffffffffff1661069c610f34565b73ffffffffffffffffffffffffffffffffffffffff1614806106cb57506106ca816106c5610f34565b610d67565b5b61070a576040517f08c379a0000000000000000000000000000000000000000000000000000000008152600401610701906121a9565b60405180910390fd5b6107148383610f3c565b505050565b60085481565b60096020528060005260406000206000915090505481565b610748610742610f34565b82610ff5565b610787576040517f08c379a000000000000000000000000000000000000000000000000000000000815260040161077e9061223b565b60405180910390fd5b61079283838361108a565b505050565b61079f6112f1565b60003373ffffffffffffffffffffffffffffffffffffffff16476040516107c59061228c565b60006040518083038185875af1925050503d8060008114610802576040519150601f19603f3d011682016040523d82523d6000602084013e610807565b606091505b505090508061084b576040517f08c379a0000000000000000000000000000000000000000000000000000000008152600401610842906122ed565b60405180910390fd5b50565b61086983838360405180602001604052806000815250610c29565b505050565b6000806002600084815260200190815260200160002060009054906101000a900473ffffffffffffffffffffffffffffffffffffffff169050600073ffffffffffffffffffffffffffffffffffffffff168173ffffffffffffffffffffffffffffffffffffffff161415610917576040517f08c379a000000000000000000000000000000000000000000000000000000000815260040161090e90612359565b60405180910390fd5b80915050919050565b6000600a60008373ffffffffffffffffffffffffffffffffffffffff1673ffffffffffffffffffffffffffffffffffffffff168152602001908152602001600020549050919050565b6109716112f1565b6000600960008373ffffffffffffffffffffffffffffffffffffffff1673ffffffffffffffffffffffffffffffffffffffff16815260200190815260200160002054146109bd57600080fd5b6001600960008373ffffffffffffffffffffffffffffffffffffffff1673ffffffffffffffffffffffffffffffffffffffff168152602001908152602001600020819055506000600854905080600a60008473ffffffffffffffffffffffffffffffffffffffff1673ffffffffffffffffffffffffffffffffffffffff1681526020019081526020016000208190555060086000815480929190610a60906123a8565b9190505550610a6f828261136f565b5050565b60008073ffffffffffffffffffffffffffffffffffffffff168273ffffffffffffffffffffffffffffffffffffffff161415610ae4576040517f08c379a0000000000000000000000000000000000000000000000000000000008152600401610adb90612463565b60405180910390fd5b600360008373ffffffffffffffffffffffffffffffffffffffff1673ffffffffffffffffffffffffffffffffffffffff168152602001908152602001600020549050919050565b610b336112f1565b610b3d600061138d565b565b6000600660009054906101000a900473ffffffffffffffffffffffffffffffffffffffff16905090565b606060018054610b7890612073565b80601f0160208091040260200160405190810160405280929190818152602001828054610ba490612073565b8015610bf15780601f10610bc657610100808354040283529160200191610bf1565b820191906000526020600020905b815481529060010190602001808311610bd457829003601f168201915b5050505050905090565b610c0d610c06610f34565b8383611453565b5050565b600a6020528060005260406000206000915090505481565b610c3a610c34610f34565b83610ff5565b610c79576040517f08c379a0000000000000000000000000000000000000000000000000000000008152600401610c709061223b565b60405180910390fd5b610c85848484846115c0565b50505050565b6060610c968261161c565b610cd5576040517f08c379a0000000000000000000000000000000000000000000000000000000008152600401610ccc906124cf565b60405180910390fd5b60078054610ce290612073565b80601f0160208091040260200160405190810160405280929190818152602001828054610d0e90612073565b8015610d5b5780601f10610d3057610100808354040283529160200191610d5b565b820191906000526020600020905b815481529060010190602001808311610d3e57829003601f168201915b50505050509050919050565b6000600560008473ffffffffffffffffffffffffffffffffffffffff1673ffffffffffffffffffffffffffffffffffffffff16815260200190815260200160002060008373ffffffffffffffffffffffffffffffffffffffff1673ffffffffffffffffffffffffffffffffffffffff16815260200190815260200160002060009054906101000a900460ff16905092915050565b610e036112f1565b600073ffffffffffffffffffffffffffffffffffffffff168173ffffffffffffffffffffffffffffffffffffffff161415610e73576040517f08c379a0000000000000000000000000000000000000000000000000000000008152600401610e6a90612561565b60405180910390fd5b610e7c8161138d565b50565b60007f01ffc9a7000000000000000000000000000000000000000000000000000000007bffffffffffffffffffffffffffffffffffffffffffffffffffffffff1916827bffffffffffffffffffffffffffffffffffffffffffffffffffffffff1916149050919050565b610ef28161161c565b610f31576040517f08c379a0000000000000000000000000000000000000000000000000000000008152600401610f2890612359565b60405180910390fd5b50565b600033905090565b816004600083815260200190815260200160002060006101000a81548173ffffffffffffffffffffffffffffffffffffffff021916908373ffffffffffffffffffffffffffffffffffffffff160217905550808273ffffffffffffffffffffffffffffffffffffffff16610faf8361086e565b73ffffffffffffffffffffffffffffffffffffffff167f8c5be1e5ebec7d5bd14f71427d1e84f3dd0314c0f7b2291e5b200ac8c7c3b92560405160405180910390a45050565b6000806110018361086e565b90508073ffffffffffffffffffffffffffffffffffffffff168473ffffffffffffffffffffffffffffffffffffffff16148061104357506110428185610d67565b5b8061108157508373ffffffffffffffffffffffffffffffffffffffff16611069846105bb565b73ffffffffffffffffffffffffffffffffffffffff16145b91505092915050565b8273ffffffffffffffffffffffffffffffffffffffff166110aa8261086e565b73ffffffffffffffffffffffffffffffffffffffff1614611100576040517f08c379a00000000000000000000000000000000000000000000000000000000081526004016110f7906125f3565b60405180910390fd5b600073ffffffffffffffffffffffffffffffffffffffff168273ffffffffffffffffffffffffffffffffffffffff161415611170576040517f08c379a000000000000000000000000000000000000000000000000000000000815260040161116790612685565b60405180910390fd5b61117b838383611688565b611186600082610f3c565b6001600360008573ffffffffffffffffffffffffffffffffffffffff1673ffffffffffffffffffffffffffffffffffffffff16815260200190815260200160002060008282546111d691906126a5565b925050819055506001600360008473ffffffffffffffffffffffffffffffffffffffff1673ffffffffffffffffffffffffffffffffffffffff168152602001908152602001600020600082825461122d91906126d9565b92505081905550816002600083815260200190815260200160002060006101000a81548173ffffffffffffffffffffffffffffffffffffffff021916908373ffffffffffffffffffffffffffffffffffffffff160217905550808273ffffffffffffffffffffffffffffffffffffffff168473ffffffffffffffffffffffffffffffffffffffff167fddf252ad1be2c89b69c2b068fc378daa952ba7f163c4a11628f55a4df523b3ef60405160405180910390a46112ec83838361168d565b505050565b6112f9610f34565b73ffffffffffffffffffffffffffffffffffffffff16611317610b3f565b73ffffffffffffffffffffffffffffffffffffffff161461136d576040517f08c379a00000000000000000000000000000000000000000000000000000000081526004016113649061277b565b60405180910390fd5b565b611389828260405180602001604052806000815250611692565b5050565b6000600660009054906101000a900473ffffffffffffffffffffffffffffffffffffffff16905081600660006101000a81548173ffffffffffffffffffffffffffffffffffffffff021916908373ffffffffffffffffffffffffffffffffffffffff1602179055508173ffffffffffffffffffffffffffffffffffffffff168173ffffffffffffffffffffffffffffffffffffffff167f8be0079c531659141344cd1fd0a4f28419497f9722a3daafe3b4186f6b6457e060405160405180910390a35050565b8173ffffffffffffffffffffffffffffffffffffffff168373ffffffffffffffffffffffffffffffffffffffff1614156114c2576040517f08c379a00000000000000000000000000000000000000000000000000000000081526004016114b9906127e7565b60405180910390fd5b80600560008573ffffffffffffffffffffffffffffffffffffffff1673ffffffffffffffffffffffffffffffffffffffff16815260200190815260200160002060008473ffffffffffffffffffffffffffffffffffffffff1673ffffffffffffffffffffffffffffffffffffffff16815260200190815260200160002060006101000a81548160ff0219169083151502179055508173ffffffffffffffffffffffffffffffffffffffff168373ffffffffffffffffffffffffffffffffffffffff167f17307eab39ab6107e8899845ad3d59bd9653f200f220920489ca2b5937696c31836040516115b39190611b35565b60405180910390a3505050565b6115cb84848461108a565b6115d7848484846116ed565b611616576040517f08c379a000000000000000000000000000000000000000000000000000000000815260040161160d90612879565b60405180910390fd5b50505050565b60008073ffffffffffffffffffffffffffffffffffffffff166002600084815260200190815260200160002060009054906101000a900473ffffffffffffffffffffffffffffffffffffffff1673ffffffffffffffffffffffffffffffffffffffff1614159050919050565b505050565b505050565b61169c8383611884565b6116a960008484846116ed565b6116e8576040517f08c379a00000000000000000000000000000000000000000000000000000000081526004016116df90612879565b60405180910390fd5b505050565b600061170e8473ffffffffffffffffffffffffffffffffffffffff16611a5e565b15611877578373ffffffffffffffffffffffffffffffffffffffff1663150b7a02611737610f34565b8786866040518563ffffffff1660e01b815260040161175994939291906128ee565b602060405180830381600087803b15801561177357600080fd5b505af19250505080156117a457506040513d601f19601f820116820180604052508101906117a1919061294f565b60015b611827573d80600081146117d4576040519150601f19603f3d011682016040523d82523d6000602084013e6117d9565b606091505b5060008151141561181f576040517f08c379a000000000000000000000000000000000000000000000000000000000815260040161181690612879565b60405180910390fd5b805181602001fd5b63150b7a0260e01b7bffffffffffffffffffffffffffffffffffffffffffffffffffffffff1916817bffffffffffffffffffffffffffffffffffffffffffffffffffffffff19161491505061187c565b600190505b949350505050565b600073ffffffffffffffffffffffffffffffffffffffff168273ffffffffffffffffffffffffffffffffffffffff1614156118f4576040517f08c379a00000000000000000000000000000000000000000000000000000000081526004016118eb906129c8565b60405180910390fd5b6118fd8161161c565b1561193d576040517f08c379a000000000000000000000000000000000000000000000000000000000815260040161193490612a34565b60405180910390fd5b61194960008383611688565b6001600360008473ffffffffffffffffffffffffffffffffffffffff1673ffffffffffffffffffffffffffffffffffffffff168152602001908152602001600020600082825461199991906126d9565b92505081905550816002600083815260200190815260200160002060006101000a81548173ffffffffffffffffffffffffffffffffffffffff021916908373ffffffffffffffffffffffffffffffffffffffff160217905550808273ffffffffffffffffffffffffffffffffffffffff16600073ffffffffffffffffffffffffffffffffffffffff167fddf252ad1be2c89b69c2b068fc378daa952ba7f163c4a11628f55a4df523b3ef60405160405180910390a4611a5a6000838361168d565b5050565b6000808273ffffffffffffffffffffffffffffffffffffffff163b119050919050565b6000604051905090565b600080fd5b600080fd5b60007fffffffff0000000000000000000000000000000000000000000000000000000082169050919050565b611aca81611a95565b8114611ad557600080fd5b50565b600081359050611ae781611ac1565b92915050565b600060208284031215611b0357611b02611a8b565b5b6000611b1184828501611ad8565b91505092915050565b60008115159050919050565b611b2f81611b1a565b82525050565b6000602082019050611b4a6000830184611b26565b92915050565b600081519050919050565b600082825260208201905092915050565b60005b83811015611b8a578082015181840152602081019050611b6f565b83811115611b99576000848401525b50505050565b6000601f19601f8301169050919050565b6000611bbb82611b50565b611bc58185611b5b565b9350611bd5818560208601611b6c565b611bde81611b9f565b840191505092915050565b60006020820190508181036000830152611c038184611bb0565b905092915050565b6000819050919050565b611c1e81611c0b565b8114611c2957600080fd5b50565b600081359050611c3b81611c15565b92915050565b600060208284031215611c5757611c56611a8b565b5b6000611c6584828501611c2c565b91505092915050565b600073ffffffffffffffffffffffffffffffffffffffff82169050919050565b6000611c9982611c6e565b9050919050565b611ca981611c8e565b82525050565b6000602082019050611cc46000830184611ca0565b92915050565b611cd381611c8e565b8114611cde57600080fd5b50565b600081359050611cf081611cca565b92915050565b60008060408385031215611d0d57611d0c611a8b565b5b6000611d1b85828601611ce1565b9250506020611d2c85828601611c2c565b9150509250929050565b611d3f81611c0b565b82525050565b6000602082019050611d5a6000830184611d36565b92915050565b600060208284031215611d7657611d75611a8b565b5b6000611d8484828501611ce1565b91505092915050565b600080600060608486031215611da657611da5611a8b565b5b6000611db486828701611ce1565b9350506020611dc586828701611ce1565b9250506040611dd686828701611c2c565b9150509250925092565b611de981611b1a565b8114611df457600080fd5b50565b600081359050611e0681611de0565b92915050565b60008060408385031215611e2357611e22611a8b565b5b6000611e3185828601611ce1565b9250506020611e4285828601611df7565b9150509250929050565b600080fd5b600080fd5b7f4e487b7100000000000000000000000000000000000000000000000000000000600052604160045260246000fd5b611e8e82611b9f565b810181811067ffffffffffffffff82111715611ead57611eac611e56565b5b80604052505050565b6000611ec0611a81565b9050611ecc8282611e85565b919050565b600067ffffffffffffffff821115611eec57611eeb611e56565b5b611ef582611b9f565b9050602081019050919050565b82818337600083830152505050565b6000611f24611f1f84611ed1565b611eb6565b905082815260208101848484011115611f4057611f3f611e51565b5b611f4b848285611f02565b509392505050565b600082601f830112611f6857611f67611e4c565b5b8135611f78848260208601611f11565b91505092915050565b60008060008060808587031215611f9b57611f9a611a8b565b5b6000611fa987828801611ce1565b9450506020611fba87828801611ce1565b9350506040611fcb87828801611c2c565b925050606085013567ffffffffffffffff811115611fec57611feb611a90565b5b611ff887828801611f53565b91505092959194509250565b6000806040838503121561201b5761201a611a8b565b5b600061202985828601611ce1565b925050602061203a85828601611ce1565b9150509250929050565b7f4e487b7100000000000000000000000000000000000000000000000000000000600052602260045260246000fd5b6000600282049050600182168061208b57607f821691505b6020821081141561209f5761209e612044565b5b50919050565b7f4552433732313a20617070726f76616c20746f2063757272656e74206f776e6560008201527f7200000000000000000000000000000000000000000000000000000000000000602082015250565b6000612101602183611b5b565b915061210c826120a5565b604082019050919050565b60006020820190508181036000830152612130816120f4565b9050919050565b7f4552433732313a20617070726f76652063616c6c6572206973206e6f7420746f60008201527f6b656e206f776e6572206e6f7220617070726f76656420666f7220616c6c0000602082015250565b6000612193603e83611b5b565b915061219e82612137565b604082019050919050565b600060208201905081810360008301526121c281612186565b9050919050565b7f4552433732313a2063616c6c6572206973206e6f7420746f6b656e206f776e6560008201527f72206e6f7220617070726f766564000000000000000000000000000000000000602082015250565b6000612225602e83611b5b565b9150612230826121c9565b604082019050919050565b6000602082019050818103600083015261225481612218565b9050919050565b600081905092915050565b50565b600061227660008361225b565b915061228182612266565b600082019050919050565b600061229782612269565b9150819050919050565b7f7769746864726177206661696c65640000000000000000000000000000000000600082015250565b60006122d7600f83611b5b565b91506122e2826122a1565b602082019050919050565b60006020820190508181036000830152612306816122ca565b9050919050565b7f4552433732313a20696e76616c696420746f6b656e2049440000000000000000600082015250565b6000612343601883611b5b565b915061234e8261230d565b602082019050919050565b6000602082019050818103600083015261237281612336565b9050919050565b7f4e487b7100000000000000000000000000000000000000000000000000000000600052601160045260246000fd5b60006123b382611c0b565b91507fffffffffffffffffffffffffffffffffffffffffffffffffffffffffffffffff8214156123e6576123e5612379565b5b600182019050919050565b7f4552433732313a2061646472657373207a65726f206973206e6f74206120766160008201527f6c6964206f776e65720000000000000000000000000000000000000000000000602082015250565b600061244d602983611b5b565b9150612458826123f1565b604082019050919050565b6000602082019050818103600083015261247c81612440565b9050919050565b7f546f6b656e20646f6573206e6f74206578697374210000000000000000000000600082015250565b60006124b9601583611b5b565b91506124c482612483565b602082019050919050565b600060208201905081810360008301526124e8816124ac565b9050919050565b7f4f776e61626c653a206e6577206f776e657220697320746865207a65726f206160008201527f6464726573730000000000000000000000000000000000000000000000000000602082015250565b600061254b602683611b5b565b9150612556826124ef565b604082019050919050565b6000602082019050818103600083015261257a8161253e565b9050919050565b7f4552433732313a207472616e736665722066726f6d20696e636f72726563742060008201527f6f776e6572000000000000000000000000000000000000000000000000000000602082015250565b60006125dd602583611b5b565b91506125e882612581565b604082019050919050565b6000602082019050818103600083015261260c816125d0565b9050919050565b7f4552433732313a207472616e7366657220746f20746865207a65726f2061646460008201527f7265737300000000000000000000000000000000000000000000000000000000602082015250565b600061266f602483611b5b565b915061267a82612613565b604082019050919050565b6000602082019050818103600083015261269e81612662565b9050919050565b60006126b082611c0b565b91506126bb83611c0b565b9250828210156126ce576126cd612379565b5b828203905092915050565b60006126e482611c0b565b91506126ef83611c0b565b9250827fffffffffffffffffffffffffffffffffffffffffffffffffffffffffffffffff0382111561272457612723612379565b5b828201905092915050565b7f4f776e61626c653a2063616c6c6572206973206e6f7420746865206f776e6572600082015250565b6000612765602083611b5b565b91506127708261272f565b602082019050919050565b6000602082019050818103600083015261279481612758565b9050919050565b7f4552433732313a20617070726f766520746f2063616c6c657200000000000000600082015250565b60006127d1601983611b5b565b91506127dc8261279b565b602082019050919050565b60006020820190508181036000830152612800816127c4565b9050919050565b7f4552433732313a207472616e7366657220746f206e6f6e20455243373231526560008201527f63656976657220696d706c656d656e7465720000000000000000000000000000602082015250565b6000612863603283611b5b565b915061286e82612807565b604082019050919050565b6000602082019050818103600083015261289281612856565b9050919050565b600081519050919050565b600082825260208201905092915050565b60006128c082612899565b6128ca81856128a4565b93506128da818560208601611b6c565b6128e381611b9f565b840191505092915050565b60006080820190506129036000830187611ca0565b6129106020830186611ca0565b61291d6040830185611d36565b818103606083015261292f81846128b5565b905095945050505050565b60008151905061294981611ac1565b92915050565b60006020828403121561296557612964611a8b565b5b60006129738482850161293a565b91505092915050565b7f4552433732313a206d696e7420746f20746865207a65726f2061646472657373600082015250565b60006129b2602083611b5b565b91506129bd8261297c565b602082019050919050565b600060208201905081810360008301526129e1816129a5565b9050919050565b7f4552433732313a20746f6b656e20616c7265616479206d696e74656400000000600082015250565b6000612a1e601c83611b5b565b9150612a29826129e8565b602082019050919050565b60006020820190508181036000830152612a4d81612a11565b905091905056fea26469706673582212207ea573bdbb05312c1658a08c64267df1fea182a4b387120bb9fcc8c9fe4e6bd664736f6c63430008090033",
  "linkReferences": {},
  "deployedLinkReferences": {}
}