{
  "_format": "hh-sol-artifact-1",
  "contractName": "BusinessCardNft",
  "sourceName": "contracts/NFT.sol",
  "abi": [
    {
      "inputs": [
        {
          "internalType": "string",
          "name": "_name",
          "type": "string"
        },
        {
          "internalType": "string",
          "name": "_symbol",
          "type": "string"
        },
        {
          "internalType": "string",
          "name": "_baseTokenURI",
          "type": "string"
        }
      ],
      "stateMutability": "nonpayable",
      "type": "constructor"
    },
    {
      "anonymous": false,
      "inputs": [
        {
          "indexed": true,
          "internalType": "address",
          "name": "owner",
          "type": "address"
        },
        {
          "indexed": true,
          "internalType": "address",
          "name": "approved",
          "type": "address"
        },
        {
          "indexed": true,
          "internalType": "uint256",
          "name": "tokenId",
          "type": "uint256"
        }
      ],
      "name": "Approval",
      "type": "event"
    },
    {
      "anonymous": false,
      "inputs": [
        {
          "indexed": true,
          "internalType": "address",
          "name": "owner",
          "type": "address"
        },
        {
          "indexed": true,
          "internalType": "address",
          "name": "operator",
          "type": "address"
        },
        {
          "indexed": false,
          "internalType": "bool",
          "name": "approved",
          "type": "bool"
        }
      ],
      "name": "ApprovalForAll",
      "type": "event"
    },
    {
      "anonymous": false,
      "inputs": [
        {
          "indexed": true,
          "internalType": "address",
          "name": "previousOwner",
          "type": "address"
        },
        {
          "indexed": true,
          "internalType": "address",
          "name": "newOwner",
          "type": "address"
        }
      ],
      "name": "OwnershipTransferred",
      "type": "event"
    },
    {
      "anonymous": false,
      "inputs": [
        {
          "indexed": true,
          "internalType": "address",
          "name": "from",
          "type": "address"
        },
        {
          "indexed": true,
          "internalType": "address",
          "name": "to",
          "type": "address"
        },
        {
          "indexed": true,
          "internalType": "uint256",
          "name": "tokenId",
          "type": "uint256"
        }
      ],
      "name": "Transfer",
      "type": "event"
    },
    {
      "inputs": [
        {
          "internalType": "address",
          "name": "to",
          "type": "address"
        },
        {
          "internalType": "uint256",
          "name": "tokenId",
          "type": "uint256"
        }
      ],
      "name": "approve",
      "outputs": [],
      "stateMutability": "nonpayable",
      "type": "function"
    },
    {
      "inputs": [
        {
          "internalType": "address",
          "name": "owner",
          "type": "address"
        }
      ],
      "name": "balanceOf",
      "outputs": [
        {
          "internalType": "uint256",
          "name": "",
          "type": "uint256"
        }
      ],
      "stateMutability": "view",
      "type": "function"
    },
    {
      "inputs": [
        {
          "internalType": "uint256",
          "name": "tokenId",
          "type": "uint256"
        }
      ],
      "name": "getApproved",
      "outputs": [
        {
          "internalType": "address",
          "name": "",
          "type": "address"
        }
      ],
      "stateMutability": "view",
      "type": "function"
    },
    {
      "inputs": [
        {
          "internalType": "address",
          "name": "owner",
          "type": "address"
        },
        {
          "internalType": "address",
          "name": "operator",
          "type": "address"
        }
      ],
      "name": "isApprovedForAll",
      "outputs": [
        {
          "internalType": "bool",
          "name": "",
          "type": "bool"
        }
      ],
      "stateMutability": "view",
      "type": "function"
    },
    {
      "inputs": [
        {
          "internalType": "address",
          "name": "to",
          "type": "address"
        }
      ],
      "name": "mint",
      "outputs": [],
      "stateMutability": "nonpayable",
      "type": "function"
    },
    {
      "inputs": [
        {
          "internalType": "address",
          "name": "",
          "type": "address"
        }
      ],
      "name": "minted",
      "outputs": [
        {
          "internalType": "uint256",
          "name": "",
          "type": "uint256"
        }
      ],
      "stateMutability": "view",
      "type": "function"
    },
    {
      "inputs": [],
      "name": "name",
      "outputs": [
        {
          "internalType": "string",
          "name": "",
          "type": "string"
        }
      ],
      "stateMutability": "view",
      "type": "function"
    },
    {
      "inputs": [],
      "name": "owner",
      "outputs": [
        {
          "internalType": "address",
          "name": "",
          "type": "address"
        }
      ],
      "stateMutability": "view",
      "type": "function"
    },
    {
      "inputs": [
        {
          "internalType": "uint256",
          "name": "tokenId",
          "type": "uint256"
        }
      ],
      "name": "ownerOf",
      "outputs": [
        {
          "internalType": "address",
          "name": "",
          "type": "address"
        }
      ],
      "stateMutability": "view",
      "type": "function"
    },
    {
      "inputs": [],
      "name": "renounceOwnership",
      "outputs": [],
      "stateMutability": "nonpayable",
      "type": "function"
    },
    {
      "inputs": [
        {
          "internalType": "address",
          "name": "from",
          "type": "address"
        },
        {
          "internalType": "address",
          "name": "to",
          "type": "address"
        },
        {
          "internalType": "uint256",
          "name": "tokenId",
          "type": "uint256"
        }
      ],
      "name": "safeTransferFrom",
      "outputs": [],
      "stateMutability": "nonpayable",
      "type": "function"
    },
    {
      "inputs": [
        {
          "internalType": "address",
          "name": "from",
          "type": "address"
        },
        {
          "internalType": "address",
          "name": "to",
          "type": "address"
        },
        {
          "internalType": "uint256",
          "name": "tokenId",
          "type": "uint256"
        },
        {
          "internalType": "bytes",
          "name": "data",
          "type": "bytes"
        }
      ],
      "name": "safeTransferFrom",
      "outputs": [],
      "stateMutability": "nonpayable",
      "type": "function"
    },
    {
      "inputs": [
        {
          "internalType": "address",
          "name": "operator",
          "type": "address"
        },
        {
          "internalType": "bool",
          "name": "approved",
          "type": "bool"
        }
      ],
      "name": "setApprovalForAll",
      "outputs": [],
      "stateMutability": "nonpayable",
      "type": "function"
    },
    {
      "inputs": [
        {
          "internalType": "bytes4",
          "name": "interfaceId",
          "type": "bytes4"
        }
      ],
      "name": "supportsInterface",
      "outputs": [
        {
          "internalType": "bool",
          "name": "",
          "type": "bool"
        }
      ],
      "stateMutability": "view",
      "type": "function"
    },
    {
      "inputs": [],
      "name": "symbol",
      "outputs": [
        {
          "internalType": "string",
          "name": "",
          "type": "string"
        }
      ],
      "stateMutability": "view",
      "type": "function"
    },
    {
      "inputs": [
        {
          "internalType": "uint256",
          "name": "tokenId",
          "type": "uint256"
        }
      ],
      "name": "tokenURI",
      "outputs": [
        {
          "internalType": "string",
          "name": "",
          "type": "string"
        }
      ],
      "stateMutability": "view",
      "type": "function"
    },
    {
      "inputs": [],
      "name": "totalSupply",
      "outputs": [
        {
          "internalType": "uint256",
          "name": "",
          "type": "uint256"
        }
      ],
      "stateMutability": "view",
      "type": "function"
    },
    {
      "inputs": [
        {
          "internalType": "address",
          "name": "from",
          "type": "address"
        },
        {
          "internalType": "address",
          "name": "to",
          "type": "address"
        },
        {
          "internalType": "uint256",
          "name": "tokenId",
          "type": "uint256"
        }
      ],
      "name": "transferFrom",
      "outputs": [],
      "stateMutability": "nonpayable",
      "type": "function"
    },
    {
      "inputs": [
        {
          "internalType": "address",
          "name": "newOwner",
          "type": "address"
        }
      ],
      "name": "transferOwnership",
      "outputs": [],
      "stateMutability": "nonpayable",
      "type": "function"
    },
    {
      "inputs": [],
      "name": "withdraw",
      "outputs": [],
      "stateMutability": "nonpayable",
      "type": "function"
    }
  ],
  "bytecode": "0x608060405260006008553480156200001657600080fd5b5060405162002e2038038062002e2083398181016040528101906200003c9190620003cf565b828281600090805190602001906200005692919062000182565b5080600190805190602001906200006f92919062000182565b5050506200009262000086620000b460201b60201c565b620000bc60201b60201c565b8060079080519060200190620000aa92919062000182565b50505050620004ed565b600033905090565b6000600660009054906101000a900473ffffffffffffffffffffffffffffffffffffffff16905081600660006101000a81548173ffffffffffffffffffffffffffffffffffffffff021916908373ffffffffffffffffffffffffffffffffffffffff1602179055508173ffffffffffffffffffffffffffffffffffffffff168173ffffffffffffffffffffffffffffffffffffffff167f8be0079c531659141344cd1fd0a4f28419497f9722a3daafe3b4186f6b6457e060405160405180910390a35050565b8280546200019090620004b7565b90600052602060002090601f016020900481019282620001b4576000855562000200565b82601f10620001cf57805160ff191683800117855562000200565b8280016001018555821562000200579182015b82811115620001ff578251825591602001919060010190620001e2565b5b5090506200020f919062000213565b5090565b5b808211156200022e57600081600090555060010162000214565b5090565b6000604051905090565b600080fd5b600080fd5b600080fd5b600080fd5b6000601f19601f8301169050919050565b7f4e487b7100000000000000000000000000000000000000000000000000000000600052604160045260246000fd5b6200029b8262000250565b810181811067ffffffffffffffff82111715620002bd57620002bc62000261565b5b80604052505050565b6000620002d262000232565b9050620002e0828262000290565b919050565b600067ffffffffffffffff82111562000303576200030262000261565b5b6200030e8262000250565b9050602081019050919050565b60005b838110156200033b5780820151818401526020810190506200031e565b838111156200034b576000848401525b50505050565b6000620003686200036284620002e5565b620002c6565b9050828152602081018484840111156200038757620003866200024b565b5b620003948482856200031b565b509392505050565b600082601f830112620003b457620003b362000246565b5b8151620003c684826020860162000351565b91505092915050565b600080600060608486031215620003eb57620003ea6200023c565b5b600084015167ffffffffffffffff8111156200040c576200040b62000241565b5b6200041a868287016200039c565b935050602084015167ffffffffffffffff8111156200043e576200043d62000241565b5b6200044c868287016200039c565b925050604084015167ffffffffffffffff81111562000470576200046f62000241565b5b6200047e868287016200039c565b9150509250925092565b7f4e487b7100000000000000000000000000000000000000000000000000000000600052602260045260246000fd5b60006002820490506001821680620004d057607f821691505b60208210811415620004e757620004e662000488565b5b50919050565b61292380620004fd6000396000f3fe608060405234801561001057600080fd5b506004361061012c5760003560e01c80636a627842116100ad578063a22cb46511610071578063a22cb4651461031d578063b88d4fde14610339578063c87b56dd14610355578063e985e9c514610385578063f2fde38b146103b55761012c565b80636a6278421461028b57806370a08231146102a7578063715018a6146102d75780638da5cb5b146102e157806395d89b41146102ff5761012c565b80631e7269c5116100f45780631e7269c5146101e957806323b872dd146102195780633ccfd60b1461023557806342842e0e1461023f5780636352211e1461025b5761012c565b806301ffc9a71461013157806306fdde0314610161578063081812fc1461017f578063095ea7b3146101af57806318160ddd146101cb575b600080fd5b61014b60048036038101906101469190611986565b6103d1565b60405161015891906119ce565b60405180910390f35b6101696104b3565b6040516101769190611a82565b60405180910390f35b61019960048036038101906101949190611ada565b610545565b6040516101a69190611b48565b60405180910390f35b6101c960048036038101906101c49190611b8f565b61058b565b005b6101d36106a3565b6040516101e09190611bde565b60405180910390f35b61020360048036038101906101fe9190611bf9565b6106a9565b6040516102109190611bde565b60405180910390f35b610233600480360381019061022e9190611c26565b6106c1565b005b61023d610721565b005b61025960048036038101906102549190611c26565b6107d8565b005b61027560048036038101906102709190611ada565b6107f8565b6040516102829190611b48565b60405180910390f35b6102a560048036038101906102a09190611bf9565b6108aa565b005b6102c160048036038101906102bc9190611bf9565b610924565b6040516102ce9190611bde565b60405180910390f35b6102df6109dc565b005b6102e96109f0565b6040516102f69190611b48565b60405180910390f35b610307610a1a565b6040516103149190611a82565b60405180910390f35b61033760048036038101906103329190611ca5565b610aac565b005b610353600480360381019061034e9190611e1a565b610ac2565b005b61036f600480360381019061036a9190611ada565b610b24565b60405161037c9190611a82565b60405180910390f35b61039f600480360381019061039a9190611e9d565b610c00565b6040516103ac91906119ce565b60405180910390f35b6103cf60048036038101906103ca9190611bf9565b610c94565b005b60007f80ac58cd000000000000000000000000000000000000000000000000000000007bffffffffffffffffffffffffffffffffffffffffffffffffffffffff1916827bffffffffffffffffffffffffffffffffffffffffffffffffffffffff1916148061049c57507f5b5e139f000000000000000000000000000000000000000000000000000000007bffffffffffffffffffffffffffffffffffffffffffffffffffffffff1916827bffffffffffffffffffffffffffffffffffffffffffffffffffffffff1916145b806104ac57506104ab82610d18565b5b9050919050565b6060600080546104c290611f0c565b80601f01602080910402602001604051908101604052809291908181526020018280546104ee90611f0c565b801561053b5780601f106105105761010080835404028352916020019161053b565b820191906000526020600020905b81548152906001019060200180831161051e57829003601f168201915b5050505050905090565b600061055082610d82565b6004600083815260200190815260200160002060009054906101000a900473ffffffffffffffffffffffffffffffffffffffff169050919050565b6000610596826107f8565b90508073ffffffffffffffffffffffffffffffffffffffff168373ffffffffffffffffffffffffffffffffffffffff161415610607576040517f08c379a00000000000000000000000000000000000000000000000000000000081526004016105fe90611fb0565b60405180910390fd5b8073ffffffffffffffffffffffffffffffffffffffff16610626610dcd565b73ffffffffffffffffffffffffffffffffffffffff16148061065557506106548161064f610dcd565b610c00565b5b610694576040517f08c379a000000000000000000000000000000000000000000000000000000000815260040161068b90612042565b60405180910390fd5b61069e8383610dd5565b505050565b60085481565b60096020528060005260406000206000915090505481565b6106d26106cc610dcd565b82610e8e565b610711576040517f08c379a0000000000000000000000000000000000000000000000000000000008152600401610708906120d4565b60405180910390fd5b61071c838383610f23565b505050565b61072961118a565b60003373ffffffffffffffffffffffffffffffffffffffff164760405161074f90612125565b60006040518083038185875af1925050503d806000811461078c576040519150601f19603f3d011682016040523d82523d6000602084013e610791565b606091505b50509050806107d5576040517f08c379a00000000000000000000000000000000000000000000000000000000081526004016107cc90612186565b60405180910390fd5b50565b6107f383838360405180602001604052806000815250610ac2565b505050565b6000806002600084815260200190815260200160002060009054906101000a900473ffffffffffffffffffffffffffffffffffffffff169050600073ffffffffffffffffffffffffffffffffffffffff168173ffffffffffffffffffffffffffffffffffffffff1614156108a1576040517f08c379a0000000000000000000000000000000000000000000000000000000008152600401610898906121f2565b60405180910390fd5b80915050919050565b6108b261118a565b6001600960008373ffffffffffffffffffffffffffffffffffffffff1673ffffffffffffffffffffffffffffffffffffffff16815260200190815260200160002081905550600060085490506008600081548092919061091190612241565b91905055506109208282611208565b5050565b60008073ffffffffffffffffffffffffffffffffffffffff168273ffffffffffffffffffffffffffffffffffffffff161415610995576040517f08c379a000000000000000000000000000000000000000000000000000000000815260040161098c906122fc565b60405180910390fd5b600360008373ffffffffffffffffffffffffffffffffffffffff1673ffffffffffffffffffffffffffffffffffffffff168152602001908152602001600020549050919050565b6109e461118a565b6109ee6000611226565b565b6000600660009054906101000a900473ffffffffffffffffffffffffffffffffffffffff16905090565b606060018054610a2990611f0c565b80601f0160208091040260200160405190810160405280929190818152602001828054610a5590611f0c565b8015610aa25780601f10610a7757610100808354040283529160200191610aa2565b820191906000526020600020905b815481529060010190602001808311610a8557829003601f168201915b5050505050905090565b610abe610ab7610dcd565b83836112ec565b5050565b610ad3610acd610dcd565b83610e8e565b610b12576040517f08c379a0000000000000000000000000000000000000000000000000000000008152600401610b09906120d4565b60405180910390fd5b610b1e84848484611459565b50505050565b6060610b2f826114b5565b610b6e576040517f08c379a0000000000000000000000000000000000000000000000000000000008152600401610b6590612368565b60405180910390fd5b60078054610b7b90611f0c565b80601f0160208091040260200160405190810160405280929190818152602001828054610ba790611f0c565b8015610bf45780601f10610bc957610100808354040283529160200191610bf4565b820191906000526020600020905b815481529060010190602001808311610bd757829003601f168201915b50505050509050919050565b6000600560008473ffffffffffffffffffffffffffffffffffffffff1673ffffffffffffffffffffffffffffffffffffffff16815260200190815260200160002060008373ffffffffffffffffffffffffffffffffffffffff1673ffffffffffffffffffffffffffffffffffffffff16815260200190815260200160002060009054906101000a900460ff16905092915050565b610c9c61118a565b600073ffffffffffffffffffffffffffffffffffffffff168173ffffffffffffffffffffffffffffffffffffffff161415610d0c576040517f08c379a0000000000000000000000000000000000000000000000000000000008152600401610d03906123fa565b60405180910390fd5b610d1581611226565b50565b60007f01ffc9a7000000000000000000000000000000000000000000000000000000007bffffffffffffffffffffffffffffffffffffffffffffffffffffffff1916827bffffffffffffffffffffffffffffffffffffffffffffffffffffffff1916149050919050565b610d8b816114b5565b610dca576040517f08c379a0000000000000000000000000000000000000000000000000000000008152600401610dc1906121f2565b60405180910390fd5b50565b600033905090565b816004600083815260200190815260200160002060006101000a81548173ffffffffffffffffffffffffffffffffffffffff021916908373ffffffffffffffffffffffffffffffffffffffff160217905550808273ffffffffffffffffffffffffffffffffffffffff16610e48836107f8565b73ffffffffffffffffffffffffffffffffffffffff167f8c5be1e5ebec7d5bd14f71427d1e84f3dd0314c0f7b2291e5b200ac8c7c3b92560405160405180910390a45050565b600080610e9a836107f8565b90508073ffffffffffffffffffffffffffffffffffffffff168473ffffffffffffffffffffffffffffffffffffffff161480610edc5750610edb8185610c00565b5b80610f1a57508373ffffffffffffffffffffffffffffffffffffffff16610f0284610545565b73ffffffffffffffffffffffffffffffffffffffff16145b91505092915050565b8273ffffffffffffffffffffffffffffffffffffffff16610f43826107f8565b73ffffffffffffffffffffffffffffffffffffffff1614610f99576040517f08c379a0000000000000000000000000000000000000000000000000000000008152600401610f909061248c565b60405180910390fd5b600073ffffffffffffffffffffffffffffffffffffffff168273ffffffffffffffffffffffffffffffffffffffff161415611009576040517f08c379a00000000000000000000000000000000000000000000000000000000081526004016110009061251e565b60405180910390fd5b611014838383611521565b61101f600082610dd5565b6001600360008573ffffffffffffffffffffffffffffffffffffffff1673ffffffffffffffffffffffffffffffffffffffff168152602001908152602001600020600082825461106f919061253e565b925050819055506001600360008473ffffffffffffffffffffffffffffffffffffffff1673ffffffffffffffffffffffffffffffffffffffff16815260200190815260200160002060008282546110c69190612572565b92505081905550816002600083815260200190815260200160002060006101000a81548173ffffffffffffffffffffffffffffffffffffffff021916908373ffffffffffffffffffffffffffffffffffffffff160217905550808273ffffffffffffffffffffffffffffffffffffffff168473ffffffffffffffffffffffffffffffffffffffff167fddf252ad1be2c89b69c2b068fc378daa952ba7f163c4a11628f55a4df523b3ef60405160405180910390a4611185838383611526565b505050565b611192610dcd565b73ffffffffffffffffffffffffffffffffffffffff166111b06109f0565b73ffffffffffffffffffffffffffffffffffffffff1614611206576040517f08c379a00000000000000000000000000000000000000000000000000000000081526004016111fd90612614565b60405180910390fd5b565b61122282826040518060200160405280600081525061152b565b5050565b6000600660009054906101000a900473ffffffffffffffffffffffffffffffffffffffff16905081600660006101000a81548173ffffffffffffffffffffffffffffffffffffffff021916908373ffffffffffffffffffffffffffffffffffffffff1602179055508173ffffffffffffffffffffffffffffffffffffffff168173ffffffffffffffffffffffffffffffffffffffff167f8be0079c531659141344cd1fd0a4f28419497f9722a3daafe3b4186f6b6457e060405160405180910390a35050565b8173ffffffffffffffffffffffffffffffffffffffff168373ffffffffffffffffffffffffffffffffffffffff16141561135b576040517f08c379a000000000000000000000000000000000000000000000000000000000815260040161135290612680565b60405180910390fd5b80600560008573ffffffffffffffffffffffffffffffffffffffff1673ffffffffffffffffffffffffffffffffffffffff16815260200190815260200160002060008473ffffffffffffffffffffffffffffffffffffffff1673ffffffffffffffffffffffffffffffffffffffff16815260200190815260200160002060006101000a81548160ff0219169083151502179055508173ffffffffffffffffffffffffffffffffffffffff168373ffffffffffffffffffffffffffffffffffffffff167f17307eab39ab6107e8899845ad3d59bd9653f200f220920489ca2b5937696c318360405161144c91906119ce565b60405180910390a3505050565b611464848484610f23565b61147084848484611586565b6114af576040517f08c379a00000000000000000000000000000000000000000000000000000000081526004016114a690612712565b60405180910390fd5b50505050565b60008073ffffffffffffffffffffffffffffffffffffffff166002600084815260200190815260200160002060009054906101000a900473ffffffffffffffffffffffffffffffffffffffff1673ffffffffffffffffffffffffffffffffffffffff1614159050919050565b505050565b505050565b611535838361171d565b6115426000848484611586565b611581576040517f08c379a000000000000000000000000000000000000000000000000000000000815260040161157890612712565b60405180910390fd5b505050565b60006115a78473ffffffffffffffffffffffffffffffffffffffff166118f7565b15611710578373ffffffffffffffffffffffffffffffffffffffff1663150b7a026115d0610dcd565b8786866040518563ffffffff1660e01b81526004016115f29493929190612787565b602060405180830381600087803b15801561160c57600080fd5b505af192505050801561163d57506040513d601f19601f8201168201806040525081019061163a91906127e8565b60015b6116c0573d806000811461166d576040519150601f19603f3d011682016040523d82523d6000602084013e611672565b606091505b506000815114156116b8576040517f08c379a00000000000000000000000000000000000000000000000000000000081526004016116af90612712565b60405180910390fd5b805181602001fd5b63150b7a0260e01b7bffffffffffffffffffffffffffffffffffffffffffffffffffffffff1916817bffffffffffffffffffffffffffffffffffffffffffffffffffffffff191614915050611715565b600190505b949350505050565b600073ffffffffffffffffffffffffffffffffffffffff168273ffffffffffffffffffffffffffffffffffffffff16141561178d576040517f08c379a000000000000000000000000000000000000000000000000000000000815260040161178490612861565b60405180910390fd5b611796816114b5565b156117d6576040517f08c379a00000000000000000000000000000000000000000000000000000000081526004016117cd906128cd565b60405180910390fd5b6117e260008383611521565b6001600360008473ffffffffffffffffffffffffffffffffffffffff1673ffffffffffffffffffffffffffffffffffffffff16815260200190815260200160002060008282546118329190612572565b92505081905550816002600083815260200190815260200160002060006101000a81548173ffffffffffffffffffffffffffffffffffffffff021916908373ffffffffffffffffffffffffffffffffffffffff160217905550808273ffffffffffffffffffffffffffffffffffffffff16600073ffffffffffffffffffffffffffffffffffffffff167fddf252ad1be2c89b69c2b068fc378daa952ba7f163c4a11628f55a4df523b3ef60405160405180910390a46118f360008383611526565b5050565b6000808273ffffffffffffffffffffffffffffffffffffffff163b119050919050565b6000604051905090565b600080fd5b600080fd5b60007fffffffff0000000000000000000000000000000000000000000000000000000082169050919050565b6119638161192e565b811461196e57600080fd5b50565b6000813590506119808161195a565b92915050565b60006020828403121561199c5761199b611924565b5b60006119aa84828501611971565b91505092915050565b60008115159050919050565b6119c8816119b3565b82525050565b60006020820190506119e360008301846119bf565b92915050565b600081519050919050565b600082825260208201905092915050565b60005b83811015611a23578082015181840152602081019050611a08565b83811115611a32576000848401525b50505050565b6000601f19601f8301169050919050565b6000611a54826119e9565b611a5e81856119f4565b9350611a6e818560208601611a05565b611a7781611a38565b840191505092915050565b60006020820190508181036000830152611a9c8184611a49565b905092915050565b6000819050919050565b611ab781611aa4565b8114611ac257600080fd5b50565b600081359050611ad481611aae565b92915050565b600060208284031215611af057611aef611924565b5b6000611afe84828501611ac5565b91505092915050565b600073ffffffffffffffffffffffffffffffffffffffff82169050919050565b6000611b3282611b07565b9050919050565b611b4281611b27565b82525050565b6000602082019050611b5d6000830184611b39565b92915050565b611b6c81611b27565b8114611b7757600080fd5b50565b600081359050611b8981611b63565b92915050565b60008060408385031215611ba657611ba5611924565b5b6000611bb485828601611b7a565b9250506020611bc585828601611ac5565b9150509250929050565b611bd881611aa4565b82525050565b6000602082019050611bf36000830184611bcf565b92915050565b600060208284031215611c0f57611c0e611924565b5b6000611c1d84828501611b7a565b91505092915050565b600080600060608486031215611c3f57611c3e611924565b5b6000611c4d86828701611b7a565b9350506020611c5e86828701611b7a565b9250506040611c6f86828701611ac5565b9150509250925092565b611c82816119b3565b8114611c8d57600080fd5b50565b600081359050611c9f81611c79565b92915050565b60008060408385031215611cbc57611cbb611924565b5b6000611cca85828601611b7a565b9250506020611cdb85828601611c90565b9150509250929050565b600080fd5b600080fd5b7f4e487b7100000000000000000000000000000000000000000000000000000000600052604160045260246000fd5b611d2782611a38565b810181811067ffffffffffffffff82111715611d4657611d45611cef565b5b80604052505050565b6000611d5961191a565b9050611d658282611d1e565b919050565b600067ffffffffffffffff821115611d8557611d84611cef565b5b611d8e82611a38565b9050602081019050919050565b82818337600083830152505050565b6000611dbd611db884611d6a565b611d4f565b905082815260208101848484011115611dd957611dd8611cea565b5b611de4848285611d9b565b509392505050565b600082601f830112611e0157611e00611ce5565b5b8135611e11848260208601611daa565b91505092915050565b60008060008060808587031215611e3457611e33611924565b5b6000611e4287828801611b7a565b9450506020611e5387828801611b7a565b9350506040611e6487828801611ac5565b925050606085013567ffffffffffffffff811115611e8557611e84611929565b5b611e9187828801611dec565b91505092959194509250565b60008060408385031215611eb457611eb3611924565b5b6000611ec285828601611b7a565b9250506020611ed385828601611b7a565b9150509250929050565b7f4e487b7100000000000000000000000000000000000000000000000000000000600052602260045260246000fd5b60006002820490506001821680611f2457607f821691505b60208210811415611f3857611f37611edd565b5b50919050565b7f4552433732313a20617070726f76616c20746f2063757272656e74206f776e6560008201527f7200000000000000000000000000000000000000000000000000000000000000602082015250565b6000611f9a6021836119f4565b9150611fa582611f3e565b604082019050919050565b60006020820190508181036000830152611fc981611f8d565b9050919050565b7f4552433732313a20617070726f76652063616c6c6572206973206e6f7420746f60008201527f6b656e206f776e6572206e6f7220617070726f76656420666f7220616c6c0000602082015250565b600061202c603e836119f4565b915061203782611fd0565b604082019050919050565b6000602082019050818103600083015261205b8161201f565b9050919050565b7f4552433732313a2063616c6c6572206973206e6f7420746f6b656e206f776e6560008201527f72206e6f7220617070726f766564000000000000000000000000000000000000602082015250565b60006120be602e836119f4565b91506120c982612062565b604082019050919050565b600060208201905081810360008301526120ed816120b1565b9050919050565b600081905092915050565b50565b600061210f6000836120f4565b915061211a826120ff565b600082019050919050565b600061213082612102565b9150819050919050565b7f7769746864726177206661696c65640000000000000000000000000000000000600082015250565b6000612170600f836119f4565b915061217b8261213a565b602082019050919050565b6000602082019050818103600083015261219f81612163565b9050919050565b7f4552433732313a20696e76616c696420746f6b656e2049440000000000000000600082015250565b60006121dc6018836119f4565b91506121e7826121a6565b602082019050919050565b6000602082019050818103600083015261220b816121cf565b9050919050565b7f4e487b7100000000000000000000000000000000000000000000000000000000600052601160045260246000fd5b600061224c82611aa4565b91507fffffffffffffffffffffffffffffffffffffffffffffffffffffffffffffffff82141561227f5761227e612212565b5b600182019050919050565b7f4552433732313a2061646472657373207a65726f206973206e6f74206120766160008201527f6c6964206f776e65720000000000000000000000000000000000000000000000602082015250565b60006122e66029836119f4565b91506122f18261228a565b604082019050919050565b60006020820190508181036000830152612315816122d9565b9050919050565b7f546f6b656e20646f6573206e6f74206578697374210000000000000000000000600082015250565b60006123526015836119f4565b915061235d8261231c565b602082019050919050565b6000602082019050818103600083015261238181612345565b9050919050565b7f4f776e61626c653a206e6577206f776e657220697320746865207a65726f206160008201527f6464726573730000000000000000000000000000000000000000000000000000602082015250565b60006123e46026836119f4565b91506123ef82612388565b604082019050919050565b60006020820190508181036000830152612413816123d7565b9050919050565b7f4552433732313a207472616e736665722066726f6d20696e636f72726563742060008201527f6f776e6572000000000000000000000000000000000000000000000000000000602082015250565b60006124766025836119f4565b91506124818261241a565b604082019050919050565b600060208201905081810360008301526124a581612469565b9050919050565b7f4552433732313a207472616e7366657220746f20746865207a65726f2061646460008201527f7265737300000000000000000000000000000000000000000000000000000000602082015250565b60006125086024836119f4565b9150612513826124ac565b604082019050919050565b60006020820190508181036000830152612537816124fb565b9050919050565b600061254982611aa4565b915061255483611aa4565b92508282101561256757612566612212565b5b828203905092915050565b600061257d82611aa4565b915061258883611aa4565b9250827fffffffffffffffffffffffffffffffffffffffffffffffffffffffffffffffff038211156125bd576125bc612212565b5b828201905092915050565b7f4f776e61626c653a2063616c6c6572206973206e6f7420746865206f776e6572600082015250565b60006125fe6020836119f4565b9150612609826125c8565b602082019050919050565b6000602082019050818103600083015261262d816125f1565b9050919050565b7f4552433732313a20617070726f766520746f2063616c6c657200000000000000600082015250565b600061266a6019836119f4565b915061267582612634565b602082019050919050565b600060208201905081810360008301526126998161265d565b9050919050565b7f4552433732313a207472616e7366657220746f206e6f6e20455243373231526560008201527f63656976657220696d706c656d656e7465720000000000000000000000000000602082015250565b60006126fc6032836119f4565b9150612707826126a0565b604082019050919050565b6000602082019050818103600083015261272b816126ef565b9050919050565b600081519050919050565b600082825260208201905092915050565b600061275982612732565b612763818561273d565b9350612773818560208601611a05565b61277c81611a38565b840191505092915050565b600060808201905061279c6000830187611b39565b6127a96020830186611b39565b6127b66040830185611bcf565b81810360608301526127c8818461274e565b905095945050505050565b6000815190506127e28161195a565b92915050565b6000602082840312156127fe576127fd611924565b5b600061280c848285016127d3565b91505092915050565b7f4552433732313a206d696e7420746f20746865207a65726f2061646472657373600082015250565b600061284b6020836119f4565b915061285682612815565b602082019050919050565b6000602082019050818103600083015261287a8161283e565b9050919050565b7f4552433732313a20746f6b656e20616c7265616479206d696e74656400000000600082015250565b60006128b7601c836119f4565b91506128c282612881565b602082019050919050565b600060208201905081810360008301526128e6816128aa565b905091905056fea26469706673582212206b59981393f0de7927cd85c0858a7e6ac75409ebd9a4ba79dfcde9bf00a0658b64736f6c63430008090033",
  "linkReferences": {},
  "deployedLinkReferences": {}
}